:100000000C947A000C94A2000C94A2000C94A20010
:100010000C94A2000C94A2000C94A2000C94A200D8
:100020000C94A2000C94A2000C94A2000C947206F2
:100030000C94A2000C94A2000C94A2000C94A200B8
:100040000C9428060C94A2000C94A2000C94A2001C
:100050000C94A2000C94A2000C94A2000C94A20098
:100060000C9433070C94A200AD04B904C904D10464
:10007000DD04E504ED04F904150521052D0535051C
:100080003D0545054D055905750581058D05950508
:100090009D05A505AD05B905000000002400270059
:1000A0002A0000000000250028002B0000000000AE
:1000B00023002600290004040404040404040202AA
:1000C00002020202030303030303010204081020D7
:1000D00040800102040810200102040810200000E2
:1000E00000080002010000030407000000000000F7
:1000F00000007D0811241FBECFEFD8E0DEBFCDBFCA
:1001000011E0A0E0B1E0E0E4F5E102C005900D925D
:10011000A231B107D9F722E0A2E1B1E001C01D92FE
:10012000AF30B207E1F710E0CAE7D0E004C0219792
:10013000FE010E94930AC937D107C9F70E949D08A2
:100140000C949E0A0C940000833081F028F48130D6
:1001500099F08230A1F008958730A9F08830B9F085
:100160008430D1F4809180008F7D03C08091800025
:100170008F7780938000089584B58F7702C084B50F
:100180008F7D84BD08958091B0008F7703C08091EA
:10019000B0008F7D8093B0000895CF93DF93282F18
:1001A00030E0F901E252FF4F8491F901E653FF4F2D
:1001B000D491F901EA54FF4FC491CC2391F08111FD
:1001C0000E94A400EC2FF0E0EE0FFF1FE455FF4F5C
:1001D000A591B491EC91ED2381E090E021F480E0D1
:1001E00002C080E090E0DF91CF9108951F93CF93FC
:1001F000DF93282F30E0F901E252FF4F8491F9019B
:10020000E653FF4FD491F901EA54FF4FC491CC2338
:10021000C1F0162F81110E94A400EC2FF0E0EE0F28
:10022000FF1FEE55FF4FA591B4919FB7F8941111A0
:1002300004C08C91D095D82302C0EC91DE2BDC93C6
:100240009FBFDF91CF911F910895CF93DF9390E0EF
:10025000FC01E653FF4F2491FC01EA54FF4F8491C7
:10026000882361F190E0880F991FFC01E856FF4F49
:10027000C591D491FC01EE55FF4FA591B491611148
:1002800009C09FB7F8948881209582238883EC91D8
:100290002E230BC0623061F49FB7F8948881322F0F
:1002A000309583238883EC912E2B2C939FBF06C01F
:1002B0008FB7F894E8812E2B28838FBFDF91CF91E1
:1002C00008951F93CF93DF93182FEB0161E00E94F5
:1002D0002501209711F460E004C0CF3FD10539F427
:1002E00061E0812FDF91CF911F910C94F600E12FF7
:1002F000F0E0E252FF4FE491E330F9F048F4E130EE
:10030000B9F0E230A1F584B5806284BDC8BD34C0C7
:10031000E730E9F0E83019F1E43049F580918000E8
:10032000806280938000D0938B00C0938A0024C0A9
:1003300084B5806884BDC7BD1FC08091800080687F
:1003400080938000D0938900C093880015C080916D
:10035000B00080688093B000C093B3000DC080915E
:10036000B00080628093B000C093B40005C0C03874
:10037000D1050CF0B5CFAFCFDF91CF911F9108958C
:100380008E3008F08E508770806480937C0080915E
:100390007A00806480937A0080917A0086FDFCCF99
:1003A000809178002091790090E0922B0895E0915F
:1003B000DD01F091DE01309729F01092D801109202
:1003C000D70109940895CF93DF93AC01E091DB014D
:1003D000F091DC013097F1F09091DA018091D90130
:1003E0009817C0F090E0292F30E02617370754F413
:1003F000D901AD5DBE4FEA01C20FD31F28812C93F6
:100400009F5FF1CF1092DA016093D901CB01DF91A8
:10041000CF910994DF91CF910895CF92DF92EF921F
:10042000FF920F931F93CF93DF936C017A018B019F
:10043000C0E0D0E0CE15DF0581F0D8016D918D01CF
:10044000D601ED91FC910190F081E02DC601099556
:10045000892B11F02196EECF7E01C701DF91CF915C
:100460001F910F91FF90EF90DF90CF900895CF9262
:10047000DF92EF92FF92CF93DF93EC01603282E044
:1004800078070CF03DC077FD06C0653B71052CF088
:1004900064EB70E002C060E070E0898128E830E041
:1004A0006901C81AD10887FDD394CC0CDD1CCC0C93
:1004B000DD1C0D2C000CEE08FF088A8128E532E0D7
:1004C000281B310987FD3395220F331F220F331F5D
:1004D000C901330FAA0BBB0B9C01AD012C193D09BF
:1004E0004E095F09DB010E944E0A24EB30E040E038
:1004F00050E00E94240AC20ED31EE41EF51EB6016F
:1005000038813C3070F5298188E890E0821B9109A0
:1005100027FD9395880F991F880F991F68177907F2
:1005200084F08A8148E552E0481B510987FD5395C4
:10053000440F551F440F551FCB01461757070CF4A6
:10054000CA014FB7F894232F30E00297F901EE0F5C
:10055000FF1F2E0F3F1FF901E455FE4F9283818349
:100560004FBFDF91CF91FF90EF90DF90CF90089534
:100570001F93CF93DF93EC01162F88818C3008F006
:100580004EC061E0812F0E9425018881E82FF0E0B4
:100590009F01220F331FE20FF31FE455FE4F1F731D
:1005A0009081907C192B108319821A826CE00E9432
:1005B000870A9CE0899FB001112440E050E09B0134
:1005C000240F351FF901EE0FFF1F2E0F3F1FF901FA
:1005D000E455FE4F908196FD16C04F5F5F4F4C3043
:1005E000510569F781110FC01092800082E080935D
:1005F00081001092850010928400B19A80916F0062
:10060000826080936F00E881F0E0CF01880F991F2E
:10061000E80FF91FE455FE4F808180648083888154
:10062000DF91CF911F91089585ED8093BC0080915B
:10063000BC0084FDFCCF1092D60108954091630167
:10064000262F30E0240F311D21323105DCF42091BA
:10065000D6012430C9F4FC0180E090E0861758F4FC
:10066000309163012191DC01AD5BBE4FA30FB11D41
:100670002C930196F3CF80916301680F609363011F
:1006800080E0089581E0089582E008950895E09162
:10069000DA018091D901E81730F4F0E0ED5DFE4F0A
:1006A000808190E008958FEF9FEF08959091DA0197
:1006B0008091D901981750F4E92FF0E0ED5DFE4FDD
:1006C000208130E09F5F9093DA0102C02FEF3FEF6F
:1006D000C90108958091D90190E02091DA01821B2F
:1006E00091090895CF93DF93CB01EA01642F0E9413
:1006F0001E03CE01DF91CF910895CF93DF931F9218
:10070000CDB7DEB7698361E0CE0101960E941E037A
:1007100081E090E00F90DF91CF910895682F87EFEF
:1007200091E00C947D03CF9390912201892F8F70DB
:10073000907F903521F19036D9F1903409F05BC06B
:10074000853089F030F4843009F055C0609116018D
:100750000CC0863079F0873009F04DC060911801E7
:10076000C09119013DC06091180187EF91E0CF91D0
:100770000C947D0360911601C091170131C0853042
:1007800079F028F48430B9F560911A01EECF863003
:1007900051F0873081F560911C01C0911D0120C08E
:1007A00060911C01E2CF60911A01C0911B0118C039
:1007B000853079F028F48430F1F460911E01D5CFB2
:1007C000863051F08730B9F460912001C091210149
:1007D00007C060912001C9CF60911E01C0911F0127
:1007E00087EF91E00E947D038C2F90E08370992722
:1007F000CF910C948E03CF910895089580E090E0FE
:100800000895CF9341112BC0C62F811113C060E012
:1008100089E00E94F60060E08AE00E94F600C09342
:10082000EC011092EB011092EA011092E901109292
:10083000ED013EC08230E1F560E08BE00E94F60001
:1008400060E083E00E94F600C093E5011092E401AD
:100850001092E3011092E2011092E60129C06111A9
:1008600010C0811106C081E08093ED011092EC016F
:1008700011C08230E9F481E08093E6011092E50135
:1008800013C06038A9F4811108C081E08093ED01A4
:100890006093EC014093EB0109C0823049F481E0A0
:1008A0008093E6016093E5014093E4018093DF01CA
:1008B000CF9108950F931F93CF930197049780F0E2
:1008C0008091D90190E02091DA01821B91091816DC
:1008D00019060CF0B7C187EF91E00E945603F0CFE4
:1008E00087EF91E00E945603C82F80932201807FFA
:1008F000A1F0803311F587EF91E00E945603182F85
:1009000087EF91E00E945603482F612F8C2F8F7044
:10091000CF911F910F910C9401048091D90190E027
:100920002091DA01821B9109181619060CF08AC170
:1009300087EF91E00E945603F0CF803409F065C044
:10094000EC2FEF708E2F90E08830910508F07AC17F
:10095000FC01EC5CFF4F0C94930A87EF91E00E943E
:100960005603C82F61E08EE00E9425016C2F8EE0B7
:100970000BC087EF91E00E945603C82F61E085E02D
:100980000E9425016C2F85E0CF911F910F910C944F
:10099000F60087EF91E00E945603BC0177278EE0B6
:1009A00007C087EF91E00E945603BC01772785E0DE
:1009B000CF911F910F910C94610162E08EE00E9433
:1009C00025018EE00E94CD000FC062E085E00E940C
:1009D000250185E00E94CD0013C062E08EE00E94F8
:1009E00025018EE00E94C0019093170180931601AB
:1009F00029C162E085E00E94250185E00E94C001D6
:100A000090931901809318011DC1803509F05DC0D4
:100A1000EC2FEF708E2F90E08830910508F012C116
:100A2000FC01E45CFF4F0C94930A87EF91E00E9475
:100A30005603C82F61E08FE00E9425016C2F8FE0E4
:100A4000A3CF87EF91E00E945603C82F61E086E0B4
:100A50000E9425016C2F86E097CF87EF91E00E94DE
:100A60005603BC0177278FE0A3CF87EF91E00E9468
:100A70005603BC01772786E09BCF62E08FE00E949F
:100A800025018FE00E94CD000FC062E086E00E9449
:100A9000250186E00E94CD0013C062E08FE00E9435
:100AA00025018FE00E94C00190931B0180931A01E1
:100AB000C9C062E086E00E94250186E00E94C00174
:100AC00090931D0180931C01BDC0803609F05DC06C
:100AD000EC2FEF708E2F90E08830910508F0B2C0B7
:100AE000FC01EC5BFF4F0C94930A87EF91E00E94AE
:100AF0005603C82F61E080E10E9425016C2F80E140
:100B000043CF87EF91E00E945603C82F61E087E052
:100B10000E9425016C2F87E037CF87EF91E00E947C
:100B20005603BC01772780E143CF87EF91E00E9415
:100B30005603BC01772787E03BCF62E080E10E944B
:100B4000250180E10E94CD000FC062E087E00E9495
:100B5000250187E00E94CD0013C062E080E10E9481
:100B6000250180E10E94C00190931F0180931E0126
:100B700069C062E087E00E94250187E00E94C00111
:100B800090932101809320015DC0803109F05AC00B
:100B900087EF91E00E9456038C01CF70C130C1F005
:100BA00028F0C23039F1C330B9F14CC08091120144
:100BB000811106C068E070E08CE092E00E94B8020B
:100BC00081E080931201B80177278CE092E035C074
:100BD00080911301811106C061E170E089E092E02B
:100BE0000E94B80281E080931301B801772789E061
:100BF00092E023C080911401811106C062E070E090
:100C000086E092E00E94B80281E080931401B8016E
:100C1000772786E092E011C080911501811106C00E
:100C200064E070E083E092E00E94B80281E080938B
:100C30001501B801772783E092E0CF911F910F91C2
:100C40000C943702CF911F910F9108950E94990A39
:100C50001F920F920FB60F9211242F933F938F93F1
:100C60009F93AF93BF938091F3019091F401A09172
:100C7000F501B091F6013091F20126E0230F2D37F6
:100C800020F40296A11DB11D05C029E8230F03968B
:100C9000A11DB11D2093F2018093F3019093F40103
:100CA000A093F501B093F6018091EE019091EF01D0
:100CB000A091F001B091F1010196A11DB11D8093A9
:100CC000EE019093EF01A093F001B093F101BF9179
:100CD000AF919F918F913F912F910F900FBE0F90E9
:100CE0001F9018951F920F920FB60F9211242F93F9
:100CF0003F934F935F936F937F938F939F93AF93A4
:100D0000BF93EF93FF938091AA0187FF05C01092D4
:100D10008500109284001BC02091AA01022E000CB5
:100D2000330B8091AB0190E02817390784F4809150
:100D3000AA01082E000C990BFC01EE0FFF1F8E0F6D
:100D40009F1FFC01E455FE4F808186FD15C08091F8
:100D5000AA018F5F8093AA012091AA01022E000CA4
:100D6000330B8091AB0190E028173907C4F48091D0
:100D7000AA018C3064F113C08091AA01082E000CE6
:100D8000990BFC01EE0FFF1F8E0F9F1FFC01E45516
:100D9000FE4F808160E08F730E94F600D8CF809173
:100DA000840090918500049680329E4418F480E27D
:100DB0009EE405C0809184009091850004969093F4
:100DC0008900809388008FEF8093AA013BC0209117
:100DD0008400309185008091AA01082E000C990BA7
:100DE000FC01EE0FFF1F8E0F9F1FFC01E455FE4F0D
:100DF00081819281820F931F909389008093880054
:100E00008091AA01082E000C990BFC01EE0FFF1F28
:100E10008E0F9F1FFC01E455FE4F808186FF12C09C
:100E20008091AA01082E000C990BFC01EE0FFF1F08
:100E30008E0F9F1FFC01E455FE4F808161E08F7390
:100E40000E94F600FF91EF91BF91AF919F918F911A
:100E50007F916F915F914F913F912F910F900FBEB6
:100E60000F901F9018951F920F920FB60F9211249A
:100E70002F933F934F935F936F937F938F939F93A2
:100E8000AF93BF93EF93FF938091B900887F803633
:100E900009F49CC068F5883209F45BC090F4803195
:100EA00009F454C038F4882309F4F6C0883009F4F2
:100EB0004DC0F6C0883109F44CC0803209F45DC0E1
:100EC000EFC0803409F468C048F4803309F455C099
:100ED000883309F0E5C080938601D8C0803509F4D5
:100EE0004FC0883509F45DC0883409F0D9C0D6C038
:100EF000883909F4C7C0A8F4883709F467C038F402
:100F0000883609F463C0803709F460C0C9C08838E6
:100F100009F4B8C0803909F45FC0803809F0C0C056
:100F20005BC0803B09F486C038F4803A09F466C09F
:100F3000883A09F47FC0B4C0803C09F4A7C0883C5B
:100F400009F4A4C0883B09F48AC0AAC08091A90111
:100F500010C09091A8018091A701981770F5E091B9
:100F6000A80181E08E0F8093A801F0E0E957FE4FC1
:100F700080818093BB0085EC86C0809386018EC003
:100F8000E091A80181E08E0F8093A8018091BB00C1
:100F9000F0E0E957FE4F80839091A8018091A7016E
:100FA0006EC0E091A80181E08E0F8093A80180912E
:100FB000BB00F0E0E957FE4F80838091D50181119D
:100FC0006DC081E08093D40184EA61C083E08093A6
:100FD000D60110928501CFCF80918501803208F033
:100FE00051C0E091850181E08E0F80938501809151
:100FF000BB00F0E0EB59FE4F8083BDCF85EC8093C2
:10100000BC001092D60180918501803230F4E091CD
:101010008501F0E0EB59FE4F10826091850170E090
:10102000E091D001F091D10185E691E0099510920F
:10103000850136C084E08093D6011092640110923D
:101040006301E091D201F091D30109958091630190
:10105000811105C081E08093630110924301E0910A
:10106000640181E08E0F80936401F0E0ED5BFE4F40
:1010700080818093BB0090916401809163019817F7
:1010800008F479CF85E88093BC000AC085EC809392
:10109000BC001092D60104C0109286010E94140375
:1010A000FF91EF91BF91AF919F918F917F916F9140
:1010B0005F914F913F912F910F900FBE0F901F9016
:1010C0001895FC019091AB019C30A0F481E0890F50
:1010D0008093AB019083892F90E0FC01EE0FFF1FFE
:1010E0008E0F9F1FFC01E455FE4F8CED95E092831F
:1010F000818308958FEF80830895E7EFF1E01382F5
:10110000128288EE93E0A0E0B0E084839583A6830A
:10111000B78384E091E0918380838CE092E00E9429
:10112000610889E092E00E94610886E092E00E94F6
:10113000610883E092E00C946108789484B5826041
:1011400084BD84B5816084BD85B5826085BD85B56B
:10115000816085BD80916E00816080936E001092E9
:101160008100809181008260809381008091810064
:1011700081608093810080918000816080938000F5
:101180008091B10084608093B1008091B000816053
:101190008093B00080917A00846080937A0080917F
:1011A0007A00826080937A0080917A008E7F8093AB
:1011B0007A0080917A00806880937A001092C10052
:1011C0001092DA011092D9011092D8011092D70131
:1011D0001092D60181E08093D5011092D40161E094
:1011E00082E10E94F60061E083E10E94F6008091B6
:1011F000B9008E7F8093B9008091B9008D7F809374
:10120000B90080E28093B80085E48093BC0087ED4C
:1012100091E09093D3018093D20183EE91E090937B
:10122000D1018093D0018AEB8093BA008AE594E0E3
:101230009093DC018093DB0183E993E09093DE01DE
:101240008093DD0161E089E00E94250161E08AE090
:101250000E94250161E08BE00E94250161E083E0AE
:101260000E94250140E060E082E00E94010440E02D
:1012700060E080E00E940104C0E0D0E01091ED0148
:10128000112309F456C08091EC01882319F08038AD
:1012900049F14FC08091EB01869590E04091E901C2
:1012A0005091EA012091E8014817590774F421117F
:1012B00040C060E08AE00E94F60061E089E00E94A0
:1012C000F60081E08093E80134C0222391F160E0D0
:1012D00089E00E94F60060E08AE00E94F600109229
:1012E000E80127C08091EB01869590E04091E901EB
:1012F0005091EA012091E7014817590774F4211130
:1013000018C060E089E00E94F60061E08AE00E9477
:10131000F60081E08093E7010CC0222351F060E0E9
:1013200089E00E94F60060E08AE00E94F6001092D8
:10133000E7010091E601002309F456C08091E50120
:10134000882359F1803809F04FC08091E4018695D7
:1013500090E04091E2015091E3012091E1014817B2
:10136000590774F4211140C060E083E00E94F60048
:1013700061E08BE00E94F60081E08093E10134C0DF
:10138000222391F160E08BE00E94F60060E083E0B0
:101390000E94F6001092E10127C08091E401869539
:1013A00090E04091E2015091E3012091E001481763
:1013B000590774F4211118C060E08BE00E94F60018
:1013C00061E083E00E94F60081E08093E0010CC0C0
:1013D000222351F060E08BE00E94F60060E083E0A1
:1013E0000E94F6001092E0018091DF01882331F124
:1013F000112389F08091E9019091EA0101968038EA
:1014000091052CF49093EA018093E90104C01092B5
:10141000EA011092E901002389F08091E2019091A4
:10142000E3010196803891052CF49093E3018093B9
:10143000E20104C01092E3011092E201209709F446
:101440001DCF0E9400001ACF052E97FB1EF40094BA
:101450000E943B0A57FD07D00E94560A07FC03D0A2
:101460004EF40C943B0A50954095309521953F4F92
:101470004F4F5F4F089590958095709561957F4F80
:101480008F4F9F4F08950E94780AA59F900DB49F9B
:10149000900DA49F800D911D11240895B7FF0C9409
:1014A000430A0E94430A821B930B0895A1E21A2E5D
:1014B000AA1BBB1BFD010DC0AA1FBB1FEE1FFF1FF8
:1014C000A217B307E407F50720F0A21BB30BE40B48
:1014D000F50B661F771F881F991F1A9469F760958F
:1014E0007095809590959B01AC01BD01CF01089549
:1014F000A29FB001B39FC001A39F700D811D112455
:10150000911DB29F700D811D1124911D0895991B8D
:1015100079E004C0991F961708F0961B881F7A95EA
:10152000C9F780950895EE0FFF1F0590F491E02D07
:10153000099481E090E0F8940C949E0AF894FFCF0F
:10154000000000007D037203FE0346036A03560396
:0215500047034F
:107800000C94343C0C94513C0C94513C0C94513CE1
:107810000C94513C0C94513C0C94513C0C94513CB4
:107820000C94513C0C94513C0C94513C0C94513CA4
:107830000C94513C0C94513C0C94513C0C94513C94
:107840000C94513C0C94513C0C94513C0C94513C84
:107850000C94513C0C94513C0C94513C0C94513C74
:107860000C94513C0C94513C11241FBECFEFD8E036
:10787000DEBFCDBF11E0A0E0B1E0EAE8FFE702C063
:1078800005900D92A230B107D9F712E0A2E0B1E065
:1078900001C01D92AD30B107E1F70E942D3D0C945F
:1078A000C33F0C94003C982F95959595959595958B
:1078B000905D8F708A307CF0282F295A8091C0000B
:1078C00085FFFCCF9093C6008091C00085FFFCCF60
:1078D0002093C6000895282F205DF0CF982F809127
:1078E000C00085FFFCCF9093C6000895EF92FF92F1
:1078F0000F931F93EE24FF2487018091C00087FD22
:1079000017C00894E11CF11C011D111D81E2E8164D
:1079100081EAF80687E0080780E0180770F3E09135
:107920000401F091050109958091C00087FFE9CF1E
:107930008091C6001F910F91FF90EF9008950E94D3
:10794000763C982F8091C00085FFFCCF9093C600B5
:1079500091362CF490330CF09053892F089597555D
:10796000892F08951F930E949F3C182F0E949F3CCF
:107970001295107F810F1F9108951F93182F882350
:1079800021F00E94763C1150E1F71F9108951F935A
:10799000182F0E94763C803249F0809103018F5F5E
:1079A000809303018530C1F01F9108958091C0003C
:1079B00085FFFCCF84E18093C6008091C00085FFE5
:1079C000FCCF1093C6008091C00085FFFCCF80E102
:1079D0008093C6001F910895E0910401F091050184
:1079E00009951F9108950E94763C803241F0809164
:1079F00003018F5F80930301853081F008958091AA
:107A0000C00085FFFCCF84E18093C6008091C00058
:107A100085FFFCCF80E18093C6000895E0910401CA
:107A2000F09105010995089548EC50E08823A1F0F4
:107A30002D9A28EE33E0FA013197F1F721503040CA
:107A4000D1F72D9828EE33E0FA013197F1F7215064
:107A50003040D1F7815061F708953F924F925F9285
:107A60006F927F928F929F92AF92BF92CF92DF924E
:107A7000EF92FF920F931F93CF93DF93000082E06A
:107A80008093C00080E18093C4001092C50088E11B
:107A90008093C10086E08093C2005098589A259A3E
:107AA00081E00E94143D24E1F22E9EE1E92E85E959
:107AB000D82E0FE0C02E10E1B12EAA24A394B1E479
:107AC0009B2EA6E58A2EF2E57F2EE0E26E2E79E46B
:107AD000572E63E5462E50E5352E0E94763C8033C6
:107AE000B1F18133B9F1803409F46FC0813409F404
:107AF00076C0823409F485C0853409F488C08035A5
:107B000031F1823521F1813511F1853509F485C0D6
:107B1000863509F48DC0843609F496C0843709F49B
:107B200003C1853709F472C1863709F466C08091B4
:107B300003018F5F80930301853079F6E0910401A2
:107B4000F091050109950E94763C803351F60E9420
:107B5000F33CC3CF0E94763C803249F78091C0004D
:107B600085FFFCCFF092C6008091C00085FFFCCF5E
:107B70009092C6008091C00085FFFCCF8092C60025
:107B80008091C00085FFFCCF7092C6008091C0003C
:107B900085FFFCCF6092C6008091C00085FFFCCFBE
:107BA0005092C6008091C00085FFFCCF4092C60075
:107BB0008091C00085FFFCCF3092C6008091C0004C
:107BC00085FFFCCFB092C60088CF0E94763C8638F5
:107BD00008F4BDCF0E94763C0E94F33C7ECF0E9409
:107BE000763C803809F49CC0813809F40BC1823896
:107BF00009F430C1883909F48FC080E00E94C73C85
:107C00006CCF84E10E94BD3C0E94F33C66CF85E0CE
:107C10000E94BD3C0E94F33C60CF0E94763C809362
:107C200006010E94763C809307010E94F33C55CFE9
:107C30000E94763C803309F411C183E00E94BD3C70
:107C400080E00E94C73C49CF0E94763C80930902A5
:107C50000E94763C8093080280910C028E7F809374
:107C60000C020E94763C853409F409C18091080217
:107C700090910902892B89F000E010E00E94763C87
:107C8000F801E85FFE4F80830F5F1F4F809108026D
:107C9000909109020817190788F30E94763C8032F8
:107CA00009F045CF80910C0280FFF5C0609106017C
:107CB00070910701660F771F7093070160930601AB
:107CC000A0910802B09109021097C9F0E8E0F1E034
:107CD0009B01AD014E0F5F1FF999FECF32BD21BD53
:107CE000819180BDFA9AF99A2F5F3F4FE417F5070B
:107CF00099F76A0F7B1F70930701609306018091CB
:107D0000C00085FFFCCFF092C6008091C00085FFC7
:107D1000FCCFB092C600E1CE83E00E94C73CDDCE2E
:107D200082E00E94C73CD9CE0E94763C8093090233
:107D30000E94763C80930802809106019091070191
:107D4000880F991F90930701809306010E94763C4B
:107D5000853409F49AC080910C028E7F80930C02C6
:107D60000E94763C803209F0B8CE8091C00085FF39
:107D7000FCCFF092C600A0910802B09109021097C2
:107D8000C1F180910C02082F0170182F1695117007
:107D9000E0910601F0910701AF014F5F5F4FBA011B
:107DA00020E030E00023B1F4112339F49491809164
:107DB000C00085FFFCCF9093C6002F5F3F4FCB01E3
:107DC0000196FA012A173B0780F4BC014F5F5F4F11
:107DD000002351F3F999FECFF2BDE1BDF89A90B5B9
:107DE0008091C00085FFFCCFE6CF709307016093C0
:107DF00006018091C00085FDE5CE8091C00085FF21
:107E0000F8CFE0CE81E00E94C73C67CE0E94763C6E
:107E1000803209F08CCE8091C00085FFFCCFF092BB
:107E2000C6008091C00085FFFCCFE092C600809123
:107E3000C00085FFFCCFD092C6008091C00085FFB6
:107E4000FCCFC092C6008091C00085FFFCCFB092ED
:107E5000C60043CE80E10E94C73C3FCE0E94763CE4
:107E60000E94763C182F0E94763C112309F483C0AF
:107E7000113009F484C08FE00E94C73C2ECE80915F
:107E80000C02816080930C02F1CE80910C02816023
:107E900080930C0265CF809107018823880F880B9F
:107EA0008A2180930B028091060190910701880F2F
:107EB000991F90930701809306018091080280FF2B
:107EC00009C08091080290910902019690930902DD
:107ED00080930802F894F999FECF1127E0910601EA
:107EE000F0910701C8E0D1E0809108029091090269
:107EF000103091F40091570001700130D9F303E084
:107F000000935700E8950091570001700130D9F3B4
:107F100001E100935700E8950990199000915700EE
:107F200001700130D9F301E000935700E8951395F3
:107F3000103498F011270091570001700130D9F3E7
:107F400005E000935700E89500915700017001305B
:107F5000D9F301E100935700E8953296029709F0B2
:107F6000C7CF103011F00296E5CF11248091C000E8
:107F700085FFC5CEC8CE8EE10E94C73CAECD85E957
:0A7F80000E94C73CAACDF894FFCF81
:027F8A00800075
:040000030000780081
:00000001FF
