:100000000C9462000C948A000C948A000C948A0070
:100010000C948A000C948A000C948A000C948A0038
:100020000C948A000C948A000C948A000C94890425
:100030000C948A000C948A000C948A000C948A0018
:100040000C943F040C948A000C948A000C948A004F
:100050000C948A000C948A000C948A000C948A00F8
:100060000C944A050C948A0000000000230026002E
:10007000290000000008000201000003040700003E
:1000800000000000000000000000250028002B00F8
:1000900000000000240027002A00040404040404D3
:1000A0000404020202020202030303030303010227
:1000B00004081020408001020408102001020408F6
:1000C0001020940611241FBECFEFD8E0DEBFCDBFB5
:1000D00011E0A0E0B1E0E0ECFFE002C005900D927D
:1000E000AE31B107D9F722E0AEE1B1E001C01D9217
:1000F000A930B207E1F710E0C2E6D0E004C02197D2
:10010000FE010E94D307C136D107C9F70E94B40689
:100110000C94DE070C94000090E0FC01E255FF4FC8
:100120002491FC01E656FF4F8491882399F090E0DA
:10013000880F991FFC01E057FF4FA591B491FC0176
:10014000EA57FF4F859194918FB7F894EC91E22B89
:10015000EC938FBF0895833081F028F4813099F0BB
:100160008230A1F008958730A9F08830B9F084304A
:10017000D1F4809180008F7D03C0809180008F77C3
:1001800080938000089584B58F7702C084B58F7DF9
:1001900084BD08958091B0008F7703C08091B00036
:1001A0008F7D8093B00008951F93CF93DF93282F06
:1001B00030E0F901EE58FF4F8491F901E255FF4F0D
:1001C000D491F901E656FF4FC491CC23C1F0162F0C
:1001D00081110E94AB00EC2FF0E0EE0FFF1FEA57F9
:1001E000FF4FA591B4919FB7F894111104C08C9161
:1001F000D095D82302C0EC91DE2BDC939FBFDF911A
:10020000CF911F910895E091E601F091E7013097B9
:1002100029F01092E1011092E00109940895CF9322
:10022000DF93AC01E091E401F091E5013097F1F04A
:100230009091E3018091E2019817C0F090E0292F9E
:1002400030E02617370754F4D901A45DBE4FEA0108
:10025000C20FD31F28812C939F5FF1CF1092E3012F
:100260006093E201CB01DF91CF910994DF91CF91AF
:100270000895CF92DF92EF92FF920F931F93CF9347
:10028000DF936C017A018B01C0E0D0E0CE15DF0571
:1002900081F0D8016D918D01D601ED91FC91019015
:1002A000F081E02DC6010995892B11F02196EECF42
:1002B0007E01C701DF91CF911F910F91FF90EF90C9
:1002C000DF90CF900895CF92DF92EF92FF92CF937D
:1002D000DF93EC01603282E078070CF03DC077FDDF
:1002E00006C0653B71052CF064EB70E002C060E075
:1002F00070E0898128E830E06901C81AD10887FDDB
:10030000D394CC0CDD1CCC0CDD1C0D2C000CEE08A9
:10031000FF088A8128E532E0281B310987FD3395E3
:10032000220F331F220F331FC901330FAA0BBB0B40
:100330009C01AD012C193D094E095F09DB010E94AA
:100340008E0724EB30E040E050E00E946407C20ECC
:10035000D31EE41EF51EB60138813C3080F529819C
:1003600088E890E0821B910927FD9395880F991FDB
:10037000880F991F6817790784F08A8148E552E051
:10038000481B510987FD5395440F551F440F551FB6
:10039000CB01461757070CF4CA010297880F991F23
:1003A0004FB7F894232F30E0F901EE0FFF1F2E0F07
:1003B0003F1FF901EB54FE4F928381834FBFDF91C2
:1003C000CF91FF90EF90DF90CF9008951F93CF9340
:1003D000DF93EC01162F88818C3008F04DC0862FFA
:1003E0000E948C008881E82FF0E09F01220F331FCC
:1003F000E20FF31FEB54FE4F1F739081907C192B7B
:10040000108319821A826CE00E94C7079CE0899FC2
:10041000B001112440E050E09B01240F351FF90189
:10042000EE0FFF1F2E0F3F1FF901EB54FE4F90817F
:1004300096FD16C04F5F5F4F4C30510569F7811133
:100440000FC01092800082E080938100109285009E
:1004500010928400B19A80916F00826080936F0047
:10046000E881F0E0CF01880F991FE80FF91FEB54E6
:10047000FE4F8081806480838881DF91CF911F91BE
:10048000089585ED8093BC008091BC0084FDFCCF75
:100490001092DF01089540916C01262F30E0240F67
:1004A000311D21323105DCF42091DF012430C9F403
:1004B000FC0180E090E0861758F430916C012191A6
:1004C000DC01A45BBE4FA30FB11D2C930196F3CFAB
:1004D00080916C01680F60936C0180E0089581E069
:1004E000089582E008950895E091E3018091E2018A
:1004F000E81730F4F0E0E45DFE4F808190E008956D
:100500008FEF9FEF08959091E3018091E20198179A
:1005100050F4E92FF0E0E45DFE4F208130E09F5F72
:100520009093E30102C02FEF3FEFC901089580913E
:10053000E20190E02091E301821B91090895CF939D
:10054000DF93CB01EA01642F0E944B02CE01DF91C1
:10055000CF910895CF93DF931F92CDB7DEB7698314
:1005600061E0CE0101960E944B0281E090E00F9085
:10057000DF91CF910895089580E090E00895CF93A2
:1005800080912B01807F8034B1F4E0912A01F0E06A
:10059000EE0FFF1FE25EFE4F6081C18181EF91E0AF
:1005A0000E94AA026C2F70E06370772781EF91E0C0
:1005B000CF910C94AA02CF910895EF92FF920F93DE
:1005C0001F93CF93DF930297029780F08091E2010F
:1005D00090E02091E301821B9109181619060CF096
:1005E00045C181EF91E00E948302F0CF81EF91E05D
:1005F0000E948302C82F80932B01807F21F08033DB
:1006000009F042C010C08091E20190E02091E30126
:10061000821B9109181619060CF028C181EF91E090
:100620000E948302F0CFCF7081EF91E00E9483029D
:10063000811102C060E003C08130A9F461E0C11102
:100640000DC083E00E94D40060E084E0DF91CF9190
:100650001F910F91FF90EF900C94D40081E10E94C4
:10066000D40060E00AC0823009F000C160E0CC2311
:1006700031F081E10E94D40061E082E0E7CF83E0C5
:100680000E94D40061E0E1CF803409F0C6C0CF7091
:10069000C0932A0181EF91E00E948302982F91700C
:1006A000F92ED0E087FF6CC081EF91E00E948302B9
:1006B0008C01FF2039F0CC0FDD1FC050DF4F682FB9
:1006C0008881C4CF7C01FF24CC0FDD1FC050DF4FD9
:1006D0000990D881C02D8C2F0E948C00E114F10468
:1006E00009F449C08FEFE816F10409F446C0FE0191
:1006F000FF27EE58FF4FE491E330F9F048F4E13082
:10070000B9F0E230A1F584B5806284BD08BDAEC009
:10071000E730E9F0E83019F1E43049F580918000E4
:10072000806280938000F0928B00E0928A009EC0ED
:1007300084B5806884BD07BD99C0809180008068C1
:1007400080938000F0928900E09288008FC08091B1
:10075000B00080688093B0000093B30087C08091A0
:10076000B00080628093B0000093B4007FC090E836
:10077000E916F10414F460E001C061E08C2F66CF4B
:10078000CC0FDD1FFE01E050FF4FFF2051F1208113
:1007900031813327F901EE58FF4F8491F901E25579
:1007A000FF4F0491F901E656FF4F1491112391F088
:1007B00081110E94AB00E12FF0E0EE0FFF1FE8591E
:1007C000FF4FA591B491EC91E02391E080E021F4FA
:1007D00090E002C090E080E0C25EDE4F98838983A3
:1007E00045C080818E3008F08E5087708064809381
:1007F0007C0080917A00806480937A0080917A00F6
:1008000086FDFCCF8091780020917900C25EDE4F9A
:1008100090E0922B9983888329C0803139F581EF4C
:1008200091E00E948302CF70C13079F048F0C2306D
:1008300089F0C330D9F4BC0177278DEF91E00EC069
:10084000BC01772786E092E009C0BC01772783E0EE
:1008500092E004C0BC01772780E092E0DF91CF9165
:100860001F910F91FF90EF900C946301DF91CF9156
:100870001F910F91FF90EF9008950E94D9071F924A
:100880000F920FB60F9211242F933F938F939F9344
:10089000AF93BF938091ED019091EE01A091EF0194
:1008A000B091F0013091EC0123E0230F2D3720F4BB
:1008B0000196A11DB11D05C026E8230F0296A11DBA
:1008C000B11D2093EC018093ED019093EE01A09374
:1008D000EF01B093F0018091E8019091E901A091BE
:1008E000EA01B091EB010196A11DB11D8093E801D1
:1008F0009093E901A093EA01B093EB01BF91AF910E
:100900009F918F913F912F910F900FBE0F901F904D
:1009100018951F920F920FB60F9211242F933F93A9
:100920004F935F936F937F938F939F93AF93BF93F7
:10093000EF93FF938091B30187FF05C0109285006C
:10094000109284001BC02091B301022E000C330BC7
:100950008091B40190E02817390784F48091B301A5
:10096000082E000C990BFC01EE0FFF1F8E0F9F1F2E
:10097000FC01EB54FE4F808186FD15C08091B301D0
:100980008F5F8093B3012091B301022E000C330BD3
:100990008091B40190E028173907C4F48091B30125
:1009A0008C3064F113C08091B301082E000C990BB8
:1009B000FC01EE0FFF1F8E0F9F1FFC01EB54FE4F3B
:1009C000808160E08F730E94D400D8CF8091840032
:1009D00090918500049680349C4918F480E49CE949
:1009E00005C08091840090918500049690938900C1
:1009F000809388008FEF8093B3013BC020918400E7
:100A0000309185008091B301082E000C990BFC01F8
:100A1000EE0FFF1F8E0F9F1FFC01EB54FE4F8181D5
:100A20009281820F931F9093890080938800809118
:100A3000B301082E000C990BFC01EE0FFF1F8E0F67
:100A40009F1FFC01EB54FE4F808186FF12C08091F6
:100A5000B301082E000C990BFC01EE0FFF1F8E0F47
:100A60009F1FFC01EB54FE4F808161E08F730E9459
:100A7000D400FF91EF91BF91AF919F918F917F91A2
:100A80006F915F914F913F912F910F900FBE0F90FB
:100A90001F9018951F920F920FB60F9211242F934B
:100AA0003F934F935F936F937F938F939F93AF93F6
:100AB000BF93EF93FF938091B900887F803609F44C
:100AC0009CC068F5883209F45BC090F4803109F469
:100AD00054C038F4882309F4F6C0883009F44DC0B6
:100AE000F6C0883109F44CC0803209F45DC0EFC013
:100AF000803409F468C048F4803309F455C0883361
:100B000009F0E5C080938F01D8C0803509F44FC04B
:100B1000883509F45DC0883409F0D9C0D6C0883959
:100B200009F4C7C0A8F4883709F467C038F48836D8
:100B300009F463C0803709F460C0C9C0883809F47B
:100B4000B8C0803909F45FC0803809F0C0C05BC00C
:100B5000803B09F486C038F4803A09F466C0883ACC
:100B600009F47FC0B4C0803C09F4A7C0883C09F4F4
:100B7000A4C0883B09F48AC0AAC08091B20110C009
:100B80009091B1018091B001981770F5E091B10199
:100B900081E08E0F8093B101F0E0E057FE4F80813D
:100BA0008093BB0085EC86C080938F018EC0E0915E
:100BB000B10181E08E0F8093B1018091BB00F0E024
:100BC000E057FE4F80839091B1018091B0016EC0DB
:100BD000E091B10181E08E0F8093B1018091BB0063
:100BE000F0E0E057FE4F80838091DE0181116DC0FF
:100BF00081E08093DD0184EA61C083E08093DF01BE
:100C000010928E01CFCF80918E01803208F051C0BA
:100C1000E0918E0181E08E0F80938E018091BB0068
:100C2000F0E0E259FE4F8083BDCF85EC8093BC009D
:100C30001092DF0180918E01803230F4E0918E01BC
:100C4000F0E0E259FE4F108260918E0170E0E09179
:100C5000D901F091DA018EE691E0099510928E01AA
:100C600036C084E08093DF0110926D0110926C0118
:100C7000E091DB01F091DC01099580916C0181111B
:100C800005C081E080936C0110924C01E0916D01F0
:100C900081E08E0F80936D01F0E0E45BFE4F808178
:100CA0008093BB0090916D0180916C01981708F4BE
:100CB00079CF85E88093BC000AC085EC8093BC00A6
:100CC0001092DF0104C010928F010E944102FF9137
:100CD000EF91BF91AF919F918F917F916F915F91B4
:100CE0004F913F912F910F900FBE0F901F9018952D
:100CF000FC019091B4019C30A0F481E0890F8093B5
:100D0000B4019083892F90E0FC01EE0FFF1F8E0F3E
:100D10009F1FFC01EB54FE4F88EB9BE09283818385
:100D200008958FEF80830895E1EFF1E0138212823E
:100D300088EE93E0A0E0B0E084839583A683B78338
:100D400080E191E09183808386E092E00E947806C2
:100D500083E092E00E94780680E092E00E947806AC
:100D60008DEF91E00C947806789484B5826084BD10
:100D700084B5816084BD85B5826085BD85B581609F
:100D800085BD80916E00816080936E00109281001D
:100D900080918100826080938100809181008160D8
:100DA0008093810080918000816080938000809199
:100DB000B10084608093B1008091B0008160809325
:100DC000B00080917A00846080937A0080917A00EC
:100DD000826080937A0080917A00816080937A00AB
:100DE00080917A00806880937A001092C1001092FE
:100DF000E3011092E2011092E1011092E0011092E1
:100E0000DF0181E08093DE011092DD0161E082E18B
:100E10000E94D40061E083E10E94D4008091B90077
:100E20008E7F8093B9008091B9008D7F8093B90047
:100E300088E48093B80085E48093BC0083E091E06F
:100E40009093DC018093DB018FE091E09093DA01D5
:100E50008093D90186E58093BA008DED92E090935E
:100E6000E5018093E4018FEB92E09093E70180939A
:100E7000E60168E070E086E092E00E94E60169E049
:100E800070E083E092E00E94E6016AE070E080E0BA
:100E900092E00E94E6016BE070E08DEF91E00E942D
:100EA000E60181E10E948C0082E00E948C0083E0D8
:100EB0000E948C0084E00E948C00C0E0D0E020976B
:100EC000F1F30E940000FBCF052E97FB1EF4009467
:100ED0000E947B0757FD07D00E94960707FC03D0AE
:100EE0004EF40C947B0750954095309521953F4FDB
:100EF0004F4F5F4F089590958095709561957F4F06
:100F00008F4F9F4F08950E94B807A59F900DB49FE3
:100F1000900DA49F800D911D11240895B7FF0C948E
:100F200083070E948307821B930B0895A1E21A2E68
:100F3000AA1BBB1BFD010DC0AA1FBB1FEE1FFF1F7D
:100F4000A217B307E407F50720F0A21BB30BE40BCD
:100F5000F50B661F771F881F991F1A9469F7609514
:100F60007095809590959B01AC01BD01CF010895CE
:100F7000A29FB001B39FC001A39F700D811D1124DA
:100F8000911DB29F700D811D1124911D0895991B13
:100F900079E004C0991F961708F0961B881F7A9570
:100FA000C9F780950895EE0FFF1F0590F491E02D8D
:100FB000099481E090E0F8940C94DE07F894FFCF58
:100FC0000E0005000F0006001000070000000000E2
:0E0FD000AA029F02BC027302970283027402FF
:00000001FF
